:100000000C942A000C9434000C9434000C943400AA
:100010000C9434000C9434000C9434000C94340090
:100020000C9434000C9434000C9434000C94340080
:100030000C9434000C9434000C9434000C94340070
:100040000C9434000C9434000C9434000C94340060
:100050000C94340011241FBECFE5D8E0DEBFCDBF25
:100060000E9436000C944D000C9400008AB38ABBA9
:10007000B99A84B384BB8B9A92E028E0C89B05C0F0
:1000800088B3892788BBC899FECF9A9BF7CF82B3E4
:0E009000822782BB9A99FECFF1CFF894FFCF62
:00000001FF
