:020000040800F2
:10000000B00600206D0100087501000877010008A6
:10001000790100087B0100087D0100080000000054
:100020000000000000000000000000007F01000848
:10003000810100080000000083010008850100081C
:100040008701000887010008870100088701000870
:1000500087010008870100082902000849020008FA
:100060006902000889020008A90200088701000847
:100070008701000887010008870100088701000840
:100080008701000887010008870100088701000830
:10009000870100088701000887010008C9020008DD
:1000A0008701000887010008870100088701000810
:1000B0008701000887010008870100088701000800
:1000C000870100088701000887010008DD0A000891
:1000D0000D0B00085D0C0008710C0008850C000871
:1000E00087010008870100088701000800F002F876
:1000F00000F02CF80AA090E8000C82448344AAF196
:100100000107DA4501D100F021F8AFF2090EBAE893
:100110000F0013F0010F18BFFB1A43F0010318473B
:10012000780C0000880C0000002300240025002625
:10013000103A28BF78C1FBD8520728BF30C148BF4A
:100140000B6070471FB51FBD10B510BD00F031F832
:100150001146FFF7F7FF00F0C5FD00F04FF803B4BC
:10016000FFF7F2FF03BC00F057F800000948804792
:1001700009480047FEE7FEE7FEE7FEE7FEE7FEE789
:10018000FEE7FEE7FEE7FEE704480549054A064BA1
:1001900070470000050C0008ED000008B0000020CA
:1001A000B0060020B0020020B00200207047704767
:1001B0007047754600F02CF8AE4605006946534678
:1001C00020F00700854618B020B5FFF7DDFFBDE839
:1001D00020404FF000064FF000074FF000084FF0AE
:1001E000000BAC46ACE8C009ACE8C009ACE8C009FB
:1001F000ACE8C00921F007018D46704710B50446F0
:10020000AFF300802046BDE81040FFF7A8BF000014
:10021000004870470000002001491820ABBEFEE7EF
:10022000260002007047000080B540F21440C4F27E
:100230000100016841F00101016040F26000C2F27A
:1002400000000068804780BD80B540F21440C4F2D1
:100250000100016841F00201016040F26000C2F259
:1002600000004068804780BD80B540F21440C4F271
:100270000100016841F00401016040F26000C2F237
:1002800000008068804780BD80B540F21440C4F211
:100290000100016841F00801016040F26000C2F213
:1002A0000000C068804780BD80B540F21440C4F2B1
:1002B0000100016841F01001016040F26000C2F2EB
:1002C00000000069804780BDB0B540F21444C4F21C
:1002D0000104206840F260058006C2F2000505D5E1
:1002E000206840F020002060686980472068400650
:1002F00005D5206840F040002060A869804720684C
:10030000000605D5206840F080002060E86980473D
:100310002068C00505D5206840F480702060286AF8
:1003200080472068800558BFB0BD206840F4007049
:100330002060686A8047B0BD0146B0F5007F4FF08D
:10034000000016DA8A1E1E2A34D8DFE802F01032C6
:100350004332323245323232323232324732323244
:1003600032323232323232323232323249000420C8
:100370007047B1F5805F0DDBB1F5804F23DAB1F541
:10038000805F04BF10207047B1F5005F04BF1420E8
:1003900070477047B1F5007F04BF04207047B1F586
:1003A000806F04BF08207047B1F5006F04BF0C20B8
:1003B00070477047402904BF18207047802904BF48
:1003C0001C20704770470DD0B1F5004F04BF1C20B2
:1003D00070477047082070470C2070471020704706
:1003E00014207047182070472DE9F0410D8804460D
:1003F000002728460E46FF2D88BF01274FEA8708B1
:10040000FFF79AFF0F2154F82720814022EA0101CB
:1004100044F82710B1780A1F042A05D2F27842EA7C
:10042000810101F00F0110E0022903D20C2202EA3F
:1004300081010AE0082901D1042106E00229E168CE
:1004400014BFA9432943E160082154F8082001FAA8
:1004500000F0104344F80800BDE8F0811023002AA2
:1004600008BF1423C150704780B500F033F841F243
:100470000401C4F20201096840F67E52C1F3022170
:10048000C0F60002515CC84080BD000080B5FFF797
:10049000EBFF41F20401C4F20201096840F68E52FA
:1004A000C1F30221C0F60002515CC84080BD0000CB
:1004B00080B5FFF7D9FF41F20401C4F202010968D7
:1004C00040F68E52C1F3C221C0F60002515CC84012
:1004D00080BD000041F20400C4F202000068C0F3D5
:1004E000810003280EBF002001A151F820007047B1
:1004F00000127A000024F4000024F4002DE9F043F7
:1005000043F6000CC4F2000C0CF57848404511D0BD
:1005100060451ED140F29C02C2F2000241F2180E68
:100520005160C4F2020EDEF8042042F48042CEF89C
:1005300004200EE040F29C02C2F2000241F2180ECA
:100540001160C4F2020EDEF8002042F48052CEF8B0
:1005500000208F89B1F800E08C88CD883B1F0E8980
:10056000B3FA83F344EA0E044A894FEA531345EA87
:1005700004054FEA8309CB8946EA050642EA0602EA
:10058000098A42EA030218BF3A4342F0400E29B1F9
:10059000404549EA010905D060450BD0C0E900E9B2
:1005A000BDE8F0834EF20411CEF200010A6842F079
:1005B000080206E04EF20411CEF200010A6842F091
:1005C00010020A60C0E900E9BDE8F08370B543F6A7
:1005D0000001C4F20001884236D043F20001C4F2A7
:1005E0000101884218BF70BD40F29C00C2F20000B9
:1005F000006840F60004018880890429C4F20104DF
:100600005CD104280AD140F2A8011020C2F20001F6
:10061000C0F2061008602046FFF7E6FE40F2A8058B
:100620002020C2F20005C0F20610286020462946AC
:10063000FFF7DAFE402028800120A87020462946D6
:10064000FFF7D2FE802035E040F29C00C2F20000AD
:10065000406840F60004018880890429C4F201043E
:100660004BD104280CD140F2A80141F20000C2F2A3
:100670000001C0F20610086004F58060FFF7B4FEC8
:1006800040F2A80542F20000C2F20005C0F20610D6
:1006900004F58064286020462946FFF7A5FE4FF444
:1006A000804028800120A87020462946FFF79CFE44
:1006B00048F20000C0F20610286048E040F2A805A9
:1006C000C2F2000538B9102028800120A870204609
:1006D0002946FFF789FE202028800126204629464A
:1006E000AE70FFF781FE4020C0F206102860204661
:1006F0002946FFF779FE802027E060B940F2A80183
:10070000C2F200014FF4805008800120887004F587
:100710008060FFF769FE40F2A805C2F200054FF4C1
:10072000005004F580642880012620462946AE70DA
:10073000FFF75AFE44F20000C0F20610286020467F
:100740002946FFF751FE4FF400402880AE7040F27A
:10075000A801C2F200012046FFF746FE70BD00006E
:1007600012B10988C1607047037A9B0701D400BFAA
:10077000FEE70988002AC160F5D1007AC00718BFDA
:10078000704700BFFEE7000070B582B044F2004140
:10079000C4F20001884245D044F60001C4F20001D1
:1007A00088427AD043F60001C4F20101884240F049
:1007B000B58040F6000440F20020C4F20104C0F20B
:1007C000061001AD019020462946FFF70DFE4FF4BB
:1007D0008060ADF8040008208DF806002046294608
:1007E000FFF702FE40F2A405C2F200052868006986
:1007F00040F48070B0F5407F0AD14FF40060ADF84E
:10080000040001208DF8060001A92046FFF7ECFD49
:100810002868006940F48070B0F5407F7ED141F2D5
:10082000000031E040F600040420C4F20104C0F2EC
:10083000061001AD019020462946FFF7D5FD08209E
:10084000ADF804008DF8060020462946FFF7CCFDE0
:1008500040F2A405C2F200052868006940F48070E7
:10086000B0F5407F08D10120ADF804008DF80600F6
:1008700001A92046FFF7B8FD2868006940F48070A0
:10088000B0F5407F4AD10220C0F20610019001A9C4
:100890002046FFF7A9FD02B070BD40F60004C4F287
:1008A000010440F20040C0F2061004F5806501AE7C
:1008B000019028463146FFF797FD4FF40060ADF8F0
:1008C000040008208DF8060028463146FFF78CFD0D
:1008D00040F2A406C2F200063068006940F480705D
:1008E000B0F5407F0AD14FF40050ADF8040001206C
:1008F0008DF8060001A92846FFF776FD30680069EB
:1009000040F48070B0F5407F08D144F20000C0F29E
:100910000610019001A92046FFF766FD02B070BDE8
:10092000F0B581B043F60007044640F2A400C4F2DB
:10093000010744F600060D46C2F20000BC42C4F2B4
:10094000000601600FD0B44218D044F20040C4F257
:10095000000084421AD141F21C00C4F20200016876
:1009600041F4003111E041F21C00C4F2020050F8E1
:10097000041C41F4804140F8041C07E041F21C00D3
:10098000C4F20200016841F480210160E068BC42C9
:1009900040F40050E0602878E16840EA0100E0603F
:1009A000A868E16840EA0100E060287BE16840EA6D
:1009B0000100E060687B216940EA0100206128694C
:1009C000616940EA0100606102D0FFF75FFD01E06C
:1009D000FFF76EFD696819230A01B0FBF2F2584374
:1009E0008900B0FBF1F06FF0630102FB010048F2F7
:1009F0001F510001C5F2EB11A0FB0101C1F343102F
:100A000040EA0210A060287D38B3E168BC4240EAA9
:100A10000100E0600FD0B44217D044F20040C4F2AD
:100A20000000844219D14EF20410CEF20000016899
:100A300041F0400106E04EF20410CEF200000168E1
:100A400041F02001016001B0F0BD4EF20410CEF281
:100A50000000016841F08001016001B0F0BD0000BC
:100A60001AB900BF02689206FCD540F2A402C2F295
:100A7000000212689368127BB3F5805F06D17AB1E9
:100A800043F60400C4F2010000680DE05AB143F6D9
:100A90000400C4F20100006800F07F000880704785
:100AA0004068088070474068C0B208807047000006
:100AB0001AB900BF02681206FCD540F2A402C2F2C5
:100AC0000002126809889268FF23B2F5805F08BFB0
:100AD00040F2FF13194041607047000080B543F2B7
:100AE0000800C4F2010000680423C0F3400100F0D4
:100AF000010241EA420140F29C02C2F20002126885
:100B000003EA900052690844904780BD80B543F6DF
:100B10000800C4F2000000680423C0F3400100F0A4
:100B2000010241EA420140F29C02C2F20002526814
:100B300003EA900052690844904780BD80B500F0F8
:100B400001F880BD82B041F204000021C4F202002D
:100B50000191009150F8041C41F4803140F8041CCC
:100B600050F8041C01F40031009101990131019108
:100B7000009919B90199B1F5A06FF1D150F8041C91
:100B8000890354BF0021012100910099012936D128
:100B900042F20001C4F202010A6842F010020A6047
:100BA0000A6822F007020A600A6842F002020A603C
:100BB0000168016001680160016841F480610160C1
:100BC000016821F47C110160016841F4E8110160C1
:100BD00050F8041C41F0807140F8041C50F8041CCB
:100BE0008901FBD5016821F003010160016841F032
:100BF00002010160016801F00C010829FAD102B07C
:100C00007047000080B541F20000C4F202000168A4
:100C1000002241F0010101604168CFF6FF0211405E
:100C2000416001684FF6FF72CFF6F6621140016035
:100C3000016821F480210160416821F4FE014160D6
:100C40004FF41F018160FFF779FF4EF60850CEF296
:100C500000004FF00061016080BD000080B540F2EF
:100C6000A400C2F2000000688069804780BD0000D7
:100C700080B540F2A400C2F200000068806980479D
:100C800080BD000080B540F2A400C2F20000006800
:100C90008069804780BD000070B540F60004C4F252
:100CA000010440F2AC0604F54055C2F200062846A5
:100CB00031460122FFF7D4FE284631460022FFF7D5
:100CC000F7FE204610210022FFF7C8FB04F5205054
:100CD00031460022FFF744FD204610210122FFF794
:100CE000BDFB70BD8EB04FF4E130089020208DF830
:100CF000300040F69940C0F6000040F600040D9028
:100D00004FF48070C4F20104ADF828000C2004F503
:100D1000405500268DF81C0007A928460B96099619
:100D2000FFF7FEFD2846FFF72FFD0120C0F200303F
:100D3000CDF80E000220ADF80C001020CDF8120006
:100D4000042004F52055019001A928460296069634
:100D5000FFF7D4FB2846FFF739FC40F2A80110202A
:100D6000C2F20001C0F2041008602046FFF73CFB0D
:100D7000204610210122FFF771FB00BFFEE70000B3
:100D8000000000000000010203040607080900003B
:100D90000000010203040000A80D0008000000206C
:080DA000B00600002801000864
:040000050800016D81
:00000001FF
