:020000040800F2
:10000000A80600206D0100087501000877010008AE
:10001000790100087B0100087D0100080000000054
:100020000000000000000000000000007F01000848
:10003000810100080000000083010008850100081C
:100040008701000887010008870100088701000870
:1000500087010008870100082902000849020008FA
:100060006902000889020008A90200088701000847
:100070008701000887010008870100088701000840
:100080008701000887010008870100088701000830
:10009000870100088701000887010008C9020008DD
:1000A0008701000887010008870100088701000810
:1000B0008701000887010008870100088701000800
:1000C000870100088701000887010008390300083C
:1000D00069030008B9040008CD040008E104000821
:1000E00087010008870100088701000800F002F876
:1000F00000F02CF80AA090E8000C82448344AAF196
:100100000107DA4501D100F021F8AFF2090EBAE893
:100110000F0013F0010F18BFFB1A43F0010318473B
:10012000D8030000E8030000002300240025002677
:10013000103A28BF78C1FBD8520728BF30C148BF4A
:100140000B6070471FB51FBD10B510BD00F031F832
:100150001146FFF7F7FF00F0CDF900F04FF803B4B8
:10016000FFF7F2FF03BC00F057F800000948804792
:1001700009480047FEE7FEE7FEE7FEE7FEE7FEE789
:10018000FEE7FEE7FEE7FEE704480549054A064BA1
:100190007047000061040008ED000008A80000207E
:1001A000A8060020A8020020A8020020704770477F
:1001B0007047754600F02CF8AE4605006946534678
:1001C00020F00700854618B020B5FFF7DDFFBDE839
:1001D00020404FF000064FF000074FF000084FF0AE
:1001E000000BAC46ACE8C009ACE8C009ACE8C009FB
:1001F000ACE8C00921F007018D46704710B50446F0
:10020000AFF300802046BDE81040FFF7A8BF000014
:10021000004870470000002001491820ABBEFEE7EF
:10022000260002007047000080B540F21440C4F27E
:100230000100016841F00101016040F26000C2F27A
:1002400000000068804780BD80B540F21440C4F2D1
:100250000100016841F00201016040F26000C2F259
:1002600000004068804780BD80B540F21440C4F271
:100270000100016841F00401016040F26000C2F237
:1002800000008068804780BD80B540F21440C4F211
:100290000100016841F00801016040F26000C2F213
:1002A0000000C068804780BD80B540F21440C4F2B1
:1002B0000100016841F01001016040F26000C2F2EB
:1002C00000000069804780BDB0B540F21444C4F21C
:1002D0000104206840F260058006C2F2000505D5E1
:1002E000206840F020002060686980472068400650
:1002F00005D5206840F040002060A869804720684C
:10030000000605D5206840F080002060E86980473D
:100310002068C00505D5206840F480702060286AF8
:1003200080472068800558BFB0BD206840F4007049
:100330002060686A8047B0BD80B543F20800C4F20F
:10034000010000680423C0F3400100F0010241EA0B
:10035000420140F29C02C2F20002126803EA9000DD
:1003600052690844904780BD80B543F60800C4F246
:10037000000000680423C0F3400100F0010241EADC
:10038000420140F29C02C2F20002526803EA90006D
:1003900052690844904780BD80B500F001F880BDE7
:1003A00082B041F204000021C4F2020001910091E8
:1003B00050F8041C41F4803140F8041C50F8041C2F
:1003C00001F400310091019901310191009919B9AD
:1003D0000199B1F5A06FF1D150F8041C890354BF05
:1003E0000021012100910099012936D142F200013A
:1003F000C4F202010A6842F010020A600A6822F0A0
:1004000007020A600A6842F002020A60016801609D
:1004100001680160016841F480610160016821F4B4
:100420007C110160016841F4E811016050F8041C7E
:1004300041F0807140F8041C50F8041C8901FBD580
:10044000016821F003010160016841F002010160CF
:10045000016801F00C010829FAD102B070470000D0
:1004600080B541F20000C4F202000168002241F0B0
:10047000010101604168CFF6FF021140416001684F
:100480004FF6FF72CFF6F66211400160016821F469
:1004900080210160416821F4FE0141604FF41F0199
:1004A0008160FFF779FF4EF60850CEF200004FF062
:1004B0000061016080BD000080B540F2A400C2F27E
:1004C000000000688069804780BD000080B540F270
:1004D000A400C2F2000000688069804780BD00006F
:1004E00080B540F2A400C2F2000000688069804735
:1004F00080BD0000FEE700000805000800000020A5
:08050000A80600002801000814
:040000050800016D81
:00000001FF
