:020000040800F2
:10000000680600206D0100087501000877010008EE
:10001000790100087B0100087D0100080000000054
:100020000000000000000000000000007F01000848
:10003000810100080000000083010008850100081C
:100040008701000887010008870100088701000870
:100050008701000887010008870100088701000860
:100060008701000887010008870100088701000850
:100070008701000887010008870100088701000840
:100080008701000887010008870100088701000830
:100090008701000887010008870100088701000820
:1000A0008701000887010008870100088701000810
:1000B0008701000887010008000000008701000890
:1000C0008701000800000000000000008701000810
:1000D0000000000087010008870100080000000000
:1000E00087010008870100088701000800F002F876
:1000F00000F02CF80AA090E8000C82448344AAF196
:100100000107DA4501D100F021F8AFF2090EBAE893
:100110000F0013F0010F18BFFB1A43F0010318473B
:10012000F408000004090000002300240025002634
:10013000103A28BF78C1FBD8520728BF30C148BF4A
:100140000B6070471FB51FBD10B510BD00F031F832
:100150001146FFF7F7FF00F00DFC00F04FF803B475
:10016000FFF7F2FF03BC00F057F800000948804792
:1001700009480047FEE7FEE7FEE7FEE7FEE7FEE789
:10018000FEE7FEE7FEE7FEE704480549054A064BA1
:1001900070470000D1080008ED000008680000204A
:1001A000680600206802002068020020704770473F
:1001B0007047754600F02CF8AE4605006946534678
:1001C00020F00700854618B020B5FFF7DDFFBDE839
:1001D00020404FF000064FF000074FF000084FF0AE
:1001E000000BAC46ACE8C009ACE8C009ACE8C009FB
:1001F000ACE8C00921F007018D46704710B50446F0
:10020000AFF300802046BDE81040FFF7A8BF000014
:10021000004870470000002001491820ABBEFEE7EF
:100220002600020070470000B0B540F2600440F2C2
:10023000002040F60045C2F20004C0F20410C4F2EF
:10024000010520602846214600F096FA40F2004061
:10025000C0F2041020602846214600F08DFA40F6D6
:100260000000C0F2041020602846214600F084FA05
:1002700041F20000C0F2041020602846214600F040
:100280007BFA42F20000C0F20410206028462146AA
:1002900000F072FA44F20000C0F204102060284618
:1002A000214600F069FA48F20000C0F20410206014
:1002B0002846214600F060FAB0BD00000146B0F5C6
:1002C000007F4FF0000016DA8A1E1E2A34D8DFE8BD
:1002D00002F010324332323245323232323232326E
:1002E00047323232323232323232323232323232D9
:1002F000490004207047B1F5805F0DDBB1F5804FF8
:1003000023DAB1F5805F04BF10207047B1F5005FBC
:1003100004BF142070477047B1F5007F04BF04206C
:100320007047B1F5806F04BF08207047B1F5006FCA
:1003300004BF0C2070477047402904BF1820704745
:10034000802904BF1C20704770470DD0B1F5004FC5
:1003500004BF1C2070477047082070470C2070476E
:100360001020704714207047182070472DE9F04F77
:1003700081B040F600440027C4F201040FF2181BBC
:1003800047A64FF03F094FF0370A03E00137042F2B
:1003900000F07E8020462021012200F02DFA204628
:1003A0004021012200F028FA20468021012200F09D
:1003B00023FA20464FF48071012200F01DFA3BF829
:1003C0001710204600224FF0000800F015FA08E050
:1003D000B8F1030F33D900BF08F10108B8F1040FD9
:1003E000D4D036F818502046294600F0FFF90028EE
:1003F000F2D100BF2046294600F0F8F90028F9D0D4
:10040000032FE9D8DFE807F003070B02E0E7B8F1B4
:10041000030FE1D81EE0B8F1030FDDD821E0B8F1F9
:10042000030FD9D8362033224FF03D094FF0390A57
:10043000DFE808F02202262A01B0BDE8F08F2A206A
:100440002D224FF02B094FF02F0ADFE808F015029C
:10045000191DF1E734203122DFE808F00E021216F0
:10046000EAE7352032224FF030094FF0380ADFE852
:1004700008F00302070BDFE7504601B0BDE8F08F3C
:10048000104601B0BDE8F08F484601B0BDE8F08FDE
:10049000412001B0BDE8F08F200040008000000145
:1004A0000100020008001000B0B540F26005012014
:1004B00040F60044C2F20005C0F20410C4F2010488
:1004C00028602046294600F057F90220C0F20410A7
:1004D00028602046294600F04FF90820C0F2041099
:1004E00028602046294600F047F91020C0F2041089
:1004F00028602046294600F03FF92020C0F2041071
:1005000028602046294600F037F94020C0F2041048
:1005100028602046294600F02FF98020C0F2041000
:1005200028602046294600F027F940F20010C0F26A
:10053000041028602046294600F01EF92046FF21BD
:1005400000F060F9B0BD0000B0B5054601280C46CA
:1005500005D10F2C03D884F0800000F0B7F8022DED
:1005600007D10F2C88BFB0BDA4F14000C0B200F08D
:10057000ADF8B0BDB0B540F2600540F2001040F6F5
:100580000004C2F20005C0F20410C4F201042860A5
:100590002046294600F0F0F840F20020C0F2041096
:1005A00028602046294600F0E7F840F20040C0F2FB
:1005B000041028602046294600F0DEF80120C0F231
:1005C000041028602046294600F0D6F80220C0F228
:1005D000041028602046294600F0CEF80420C0F21E
:1005E000041028602046294600F0C6F80820C0F212
:1005F000041028602046294600F0BEF81020C0F202
:10060000041028602046294600F0B6F82020C0F2E9
:10061000041028602046294600F0AEF84020C0F2C1
:10062000041028602046294600F0A6F88020C0F279
:10063000041028602046294600F09EF820464FF41A
:100640008061002200F0D8F820464FF4807100222B
:1006500000F0D2F820464FF40071002200F0CCF8F0
:10066000B0BD000080B5142000F06CF9FFF782FFE8
:100670000F2000F067F900F063F8382000F026F84A
:10068000062000F023F8802000F020F80F2000F072
:100690001DF880BD10B540F60004C4F20104014607
:1006A000204600F0AFF820464FF40071002200F021
:1006B000A3F820464FF48071012200F09DF801203C
:1006C00000F040F900F042F810BD000010B540F60F
:1006D0000004C4F201040146204600F093F82046CD
:1006E0004FF40071002200F087F820464FF480712B
:1006F000002200F081F8012000F024F900F026F833
:1007000010BD000070B50178002908BF70BD441C01
:10071000002607E002200021FFF716FF14F8011B56
:100720002E4661B1C8B2751CFFF7B4FF0F2EF1D091
:100730001F2EF3D100F004F800250120EBE770BD77
:1007400080B50120FFF7C2FF80BD000010B540F664
:100750000004C4F2010420464FF48061012200F03D
:100760004BF8322000F0EEF820464FF48061002272
:1007700000F042F810BD00002DE9F0410D8804465C
:10078000002728460E46FF2D88BF01274FEA87081D
:10079000FFF794FD0F2154F82720814022EA010140
:1007A00044F82710B1780A1F042A05D2F27842EAE9
:1007B000810101F00F0110E0022903D20C2202EAAC
:1007C00081010AE0082901D1042106E00229E1683B
:1007D00014BFA9432943E160082154F8082001FA15
:1007E00000F0104344F80800BDE8F081806808403C
:1007F00018BF0120704700001023002A08BF1423EF
:10080000C1507047C160704780B500F001F880BDED
:1008100082B041F204000021C4F202000191009173
:1008200050F8041C41F4803140F8041C50F8041CBA
:1008300001F400310091019901310191009919B938
:100840000199B1F5A06FF1D150F8041C890354BF90
:100850000021012100910099012936D142F20001C5
:10086000C4F202010A6842F010020A600A6822F02B
:1008700007020A600A6842F002020A600168016029
:1008800001680160016841F480610160016821F440
:100890007C110160016841F4E811016050F8041C0A
:1008A00041F0807140F8041C50F8041C8901FBD50C
:1008B000016821F003010160016841F0020101605B
:1008C000016801F00C010829FAD102B0704700005C
:1008D00080B541F20000C4F202000168002241F03C
:1008E000010101604168CFF6FF02114041600168DB
:1008F0004FF6FF72CFF6F66211400160016821F4F5
:1009000080210160416821F4FE0141604FF41F0124
:100910008160FFF779FF4EF60850CEF200004FF0ED
:100920000061016080BD000041F21800C4F20200C5
:10093000016841F004010160016841F008010160B3
:100940007047000082B00021019102E0019A01325B
:100950000192019A824224BF02B070470091009A2E
:10096000FE2AF3D8009A01320092009AFF2AF9D3A6
:10097000ECE70000FFF7D8FFFFF774FE1AA0FFF7BF
:10098000C1FEFFF7DDFEFFF74FFC40F60820C0F682
:10099000000040F60044451E4FF0FF3613A7C4F296
:1009A000010400BF15F8010FFFF774FEB819407875
:1009B000400281B22046FFF725FF01360A2EF1D111
:1009C000FFF7BEFEFFF770FD0BA0FFF79BFE00BF19
:1009D000FFF7B6FEFFF7CAFC4128FBD03F28F7D04F
:1009E000FFF758FEF6E700BF48455900017924306B
:1009F0004C120219001001004B6579706164206986
:100A000073207265616479003031323334353637A2
:100A100038393000240A0008000000206806000071
:040A200028010008A1
:040000050800016D81
:00000001FF
