:100000000C942A000C945F000C945F000C945F0029
:100010000C945F000C945F000C945F000C945F00E4
:100020000C945F000C945F000C945F000C945F00D4
:100030000C945F000C945F000C945F000C945F00C4
:100040000C945F000C945F000C945F000C945F00B4
:100050000C945F0011241FBECFE5D8E0DEBFCDBFFA
:0C0060000E9436000C945400F894FFCF6E
:10006C000E944900C89B06C098B382E0892788BBD0
:10007C00C899FECF9A9BF6CF92B388E0892782BBB2
:06008C009A99FECFEFCFB0
:100092008AB38ABB87B3826087BB84B384BB81B3D4
:0600A200886081BB089597
:1000A800EC010E9464000E946300CE010E9465007A
:0600B800CE010E94610070
:0400BE000C9400009E
:0400C2000E94340064
:0200C60008959B
:0200C800089599
:0200CA00089597
:00000001FF
