:020000040800F2
:10000000A80600207901000881010008830100088A
:100010008501000887010008890100080000000030
:100020000000000000000000000000008B0100083C
:100030008D010008000000008F01000891010008F8
:100040009301000893010008930100089301000840
:100050009301000893010008D1040008F10400088E
:10006000110500083105000851050008930100083A
:100070009301000893010008930100089301000810
:100080009301000893010008930100089301000800
:10009000930100089301000893010008710500080E
:1000A00093010008930100089301000893010008E0
:1000B000930100089301000800000000930100086C
:1000C00093010008000000000000000093010008F8
:1000D00000000000930100089301000800000000E8
:1000E00093010008930100089301000800F002F852
:1000F00000F030F80AA090E8000C82448344AAF192
:100100000107DA4501D100F025F8AFF2090EBAE88F
:100110000F0013F0010F18BFFB1A43F0010318473B
:10012000B0100000C01000000023002400250026AD
:10013000103A28BF78C1FBD8520728BF30C148BF4A
:100140000B6070471FB50FBC00F014F80FB41FBD53
:1001500010B510BD00F033F81146FFF7F3FF00F0C3
:10016000B3FF00F051F803B4FFF7F2FF03BC00F057
:1001700059F8000000F06DB8094880470948004769
:10018000FEE7FEE7FEE7FEE7FEE7FEE7FEE7FEE747
:10019000FEE7FEE704480549054A064B70470000A4
:1001A000250E0008ED000008A8000020A806002089
:1001B000A8020020A80200207047704770477546CB
:1001C00000F02CF8AE4605006946534620F00700C3
:1001D000854618B020B5FFF7DDFFBDE820404FF0A1
:1001E00000064FF000074FF000084FF0000BAC4640
:1001F000ACE8C009ACE8C009ACE8C009ACE8C0098B
:1002000021F007018D46704710B50446AFF300801A
:100210002046BDE81040FFF7A6BF00000048704729
:100220000000002001491820ABBEFEE726000200B6
:100230000246C91C21F00301D2E900031B1A8B42BC
:1002400001D2002070470144C91D21F0070111604F
:1002500070472DE9F34F83B000274FF48074BA46FE
:1002600003A821468DF80070FFF7E2FF5FEA00085F
:1002700001D100F083F82146404600F070F80600F6
:1002800009D04FF0010B4546C14616F8014B8FB11E
:100290005C2C16D01CE008F108004146C8F80000AC
:1002A0000020C8F80400D8F800402070012005B0F4
:1002B000BDE8F08F222C01D0272C0FD12746BA465B
:1002C0002CE03078222807D05C2805D0272803D0DE
:1002D000BC4203D1002721E0761C04464CB12FB963
:1002E000202C06D0A4F10900042802D905F8014BFE
:1002F000CBE74D4502D1BAF1000F0FD05246494627
:10030000002005F8010B6846AFF300809DF800005F
:1003100070B14D464FF0000A0BF1010B002CB4D127
:100320004FEA8B0103A8FFF783FF040002D004E02B
:10033000A946EFE7002000F021F800204246C4F86B
:10034000008005E012F8011B11B9401C44F8202080
:10035000AA42F7D3002144F820102146A7E71CB594
:100360000446CDE9000169461520ABBE08B1002066
:100370001CBD20461CBD70477047704710B500F08B
:1003800009F8BDE81040AFF30080002801D0FFF766
:1003900049BF704710B5012805D0002103A000F027
:1003A00021F8012010BD09A1F8E700005349475288
:1003B000544D454D3A204F7574206F662068656135
:1003C00070206D656D6F7279000000003A204865FD
:1003D0006170206D656D6F727920636F72727570D8
:1003E0007465640070B505460C460A2000E06D1C7B
:1003F00000F011F835B128780028F8D102E0641C2B
:1004000000F009F814B120780028F8D1BDE8704058
:100410000A20AFF3008008B569468DF8000003207C
:10042000ABBE08BD82B00146ADF80600BDF80600BF
:1004300002460F28009249D80099DFE801F0081120
:100440001A232C35353535353E3E3E3E3E3E4EF286
:100450008010CEF20000016841F04001016035E0FB
:100460004EF28010CEF20000016841F08001016080
:100470002CE04EF28010CEF20000016841F4807151
:10048000016023E04EF28010CEF20000016841F4DA
:10049000007101601AE04EF28010CEF20000016897
:1004A00041F48061016011E04EF28010CEF2000054
:1004B000016841F40001016008E04EF28410CEF2C0
:1004C0000000016841F480710160FFE702B07047ED
:1004D00080B540F21440C4F20100016841F001010E
:1004E000016040F26000C2F200000068804780BDF9
:1004F00080B540F21440C4F20100016841F00201ED
:10050000016040F26000C2F200004068804780BD98
:1005100080B540F21440C4F20100016841F00401CA
:10052000016040F26000C2F200008068804780BD38
:1005300080B540F21440C4F20100016841F00801A6
:10054000016040F26000C2F20000C068804780BDD8
:1005500080B540F21440C4F20100016841F010017E
:10056000016040F26000C2F200000069804780BD77
:1005700080B540F21440C4F20100006880060028F3
:100580000FD5FFE740F21440C4F20100016841F0CA
:100590002001016040F26000C2F200004069804723
:1005A000FFE740F21440C4F2010000684006002852
:1005B0000FD5FFE740F21440C4F20100016841F09A
:1005C0004001016040F26000C2F200008069804793
:1005D000FFE740F21440C4F2010000680006002862
:1005E0000FD5FFE740F21440C4F20100016841F06A
:1005F0008001016040F26000C2F20000C0698047E3
:10060000FFE740F21440C4F201000068C005002872
:100610000FD5FFE740F21440C4F20100016841F435
:100620008071016040F26000C2F20000006A804701
:10063000FFE740F21440C4F2010000688005002882
:100640000FD5FFE740F21440C4F20100016841F405
:100650000071016040F26000C2F20000406A804711
:10066000FFE780BD80B540F29C00C2F2000001218E
:10067000016041F2B610C0F6000000F037FA4FF406
:100680007A7000F07BFD80BD82B00146ADF80600B7
:10069000BDF8060002460F28009249D80099DFE80D
:1006A00001F008111A232C35353535353E3E3E3ED6
:1006B0003E3E4EF20010CEF20000016841F04001D3
:1006C000016035E04EF20010CEF20000016841F00A
:1006D000800101602CE04EF20010CEF200000168B3
:1006E00041F48071016023E04EF20010CEF2000070
:1006F000016841F4007101601AE04EF20010CEF280
:100700000000016841F48061016011E04EF20010C8
:10071000CEF20000016841F40001016008E04EF2F1
:100720000410CEF20000016841F480710160FFE71F
:1007300002B0704782B00146ADF80400BDF8040075
:1007400002460128009244D0FFE70098022844D0D6
:10075000FFE70098042844D0FFE70098082844D019
:10076000FFE70098102844D0FFE70098202844D0E5
:10077000FFE70098402844D0FFE70098802844D045
:10078000FFE70098B0F5807F43D0FFE70098B0F511
:10079000007F42D0FFE70098B0F5806F41D0FFE7BF
:1007A0000098B0F5006F40D0FFE70098B0F5805F8B
:1007B0003FD0FFE70098B0F5005F3ED0FFE700981C
:1007C000B0F5804F3DD0FFE70098B0F5004F3CD02A
:1007D0003FE000208DF807003FE004208DF807007F
:1007E0003BE008208DF8070037E00C208DF807006B
:1007F00033E010208DF807002FE014208DF807005B
:100800002BE018208DF8070027E01C208DF807004A
:1008100023E000208DF807001FE004208DF807007A
:100820001BE008208DF8070017E00C208DF807006A
:1008300013E010208DF807000FE014208DF807005A
:100840000BE018208DF8070007E01C208DF807004A
:1008500003E000208DF80700FFE79DF8070002B0D5
:100860007047000080B582B00A4603468DF8070045
:100870008DF806109DF80700012812D1FFE79DF8BA
:1008800006000F280CDCFFE79DF80600002807D4BF
:10089000FFE79DF806008030C0B200F0FDF8FFE7EA
:1008A000FFE79DF80700022812D1FFE79DF8060038
:1008B0000F280CDCFFE79DF80600002807D4FFE7AF
:1008C0009DF80600C030C0B200F0E6F8FFE7FFE791
:1008D00002B080BD80B588B040F2A000C2F2000036
:1008E0004FF480710180042282700123C37040F6AE
:1008F000000CC4F2010C07906046DDF81CE0069184
:10090000714605920493CDF80CC000F045F94FF400
:10091000007007990880059A8A70049BCB70DDF8F7
:100920000CC00290604600F037F94FF480600799E0
:100930000880059A8A70049BCB70DDF80CC001908A
:10094000604600F029F9049807990880059A8A7092
:10095000C870039800F020F90220079908800598D4
:100960008870049ACA70039800F016F905980799E0
:1009700008808870049ACA70039800F00DF9082066
:100980000799088005988870049ACA70039800F047
:1009900003F910200799088005988870049ACA7096
:1009A000039800F0F9F820200799088005988870CE
:1009B000049ACA70039800F0EFF840200799088065
:1009C00005988870049ACA70039800F0E5F88020B2
:1009D0000799088005988870049ACA70039800F0F7
:1009E000DBF800200399009008460199009A00F076
:1009F0005DF903980699009A00F058F90398029956
:100A0000009A00F053F908B080BD000080B582B0B4
:100A1000142000F03BFBFFF75DFF0F20019000F07A
:100A200035FB00F093F8382000F036F8062000F08F
:100A300033F8802000F030F8019800F02DF802B073
:100A400080BD000080B586B001468DF817009DF886
:100A5000170040F60002C4F2010204901046049B05
:100A600003911946029200F03BF94FF40071002205
:100A7000029800F01BF94FF480710120029A019056
:100A80001046019A00F012F9019800F0FFFA00F008
:100A900063F806B080BD000080B586B001468DF8D1
:100AA00017009DF8170040F60002C4F201020490FE
:100AB0001046049B03911946029200F011F94FF47D
:100AC00000710020029A01901046019A00F0EEF8A1
:100AD0004FF480710298019A00F0E8F8012000F0CC
:100AE000D5FA00F039F806B080BD000080B584B0BA
:100AF000039000200290FFE703980078012822DB92
:100B0000FFE70298013002900398411C039100789E
:100B1000FFF798FF0298102805D1FFE70220002177
:100B2000FFF7A0FE0EE0029820280AD1FFE700F0B0
:100B30000DF8012000210191FFF794FE0198029029
:100B4000FFE7FFE7D8E704B080BD000080B50120D3
:100B5000FFF7A2FF80BD000080B582B040F6000024
:100B6000C4F201004FF4806101220190009100F075
:100B70009DF8322000F08AFA00220198009900F0D6
:100B800095F802B080BD000080B582B00190019858
:100B900000F07CF902B080BD80B586B0059004916C
:100BA000002003908DF80B0004980088FF2803DCD8
:100BB000FFE70598019003E0059804300190FFE7F6
:100BC0000198039004980088FFF7B4FD0F2101FA03
:100BD00000F003990A6822EA00000860049880780F
:100BE00007280FD0FFE70498807806280AD0FFE78F
:100BF00004988078052805D0FFE7049880780428B9
:100C00000DD1FFE704988178C0786FF00F0202EBF6
:100C10008101084300F00F008DF80B0034E00498C8
:100C20008078012805D0FFE704988078002808D153
:100C3000FFE7049880780C2101EA80008DF80B0012
:100C400021E004988078082804D1FFE704208DF87B
:100C50000B0017E008208DF80B000498807802281C
:100C600007D1FFE7049800880599CA681043C86057
:100C700007E0049800880599CA6822EA0000C86065
:100C8000FFE7FFE7FFE7FFE79DF80B0004990988FE
:100C900000900846FFF74EFD009901FA00F0039915
:100CA0000A681043086006B080BD000082B0134699
:100CB0008C460190ADF802108DF801209DF80100DE
:100CC000002805D0FFE7BDF802000199086104E0A3
:100CD000BDF8020001994861FFE702B070470000CB
:100CE00082B00A460190ADF80210BDF802000199E9
:100CF000C86002B07047000080B500F001F880BD08
:100D000083B000200290019041F20000C4F2020082
:100D1000016841F480310160FFE741F20000C4F254
:100D20000200006800F40030019002980130029047
:100D3000FFE7019800210028009107D1FFE7029802
:100D4000B0F5A06018BF01200090FFE70098C00731
:100D50000028E2D1FFE741F20000C4F2020000687F
:100D60008003002803D5FFE70120019002E0002066
:100D70000190FFE70198012850D1FFE742F20000FF
:100D8000C4F20200016841F010010160016821F025
:100D900007010160016841F00201016041F20400B5
:100DA000C4F202000168016001680160016841F459
:100DB00080610160016821F47C110160016841F4E7
:100DC000E811016041F20000C4F20200016841F044
:100DD00080710160FFE741F20000C4F20200006888
:100DE0008001002801D4FFE7F5E741F20400C4F2D6
:100DF0000200016821F003010160016841F0020175
:100E00000160FFE741F20400C4F20200006800F054
:100E10000C00082801D0FFE7F4E700E0FFE703B08B
:100E20007047000080B541F20000C4F20200016882
:100E300041F00101016041F20401C4F202010A68BB
:100E40000023CFF6FF031A400A6002684FF6FF73D3
:100E5000CFF6F6631A400260026822F48022026034
:100E6000086820F4FE00086041F20800C4F20200A5
:100E70004FF41F010160FFF73FFF4EF60850CEF21E
:100E800000004FF00061016080BD000080B586B0B9
:100E9000059008208DF8120005980089ADF8100023
:100EA0000598406804A9FFF777FE05980088800838
:100EB0008DF80F000598008800F0030080008DF881
:100EC0000E009DF80E000F2101FA00F09DF80F10A2
:100ED0000822C4F2010252F8213023EA000042F84D
:100EE00021000598406840F60001C4F201018842E3
:100EF00003D1FFE70020029029E00598406840F602
:100F00000041C4F20101884203D1FFE701200190B2
:100F10001AE00598406841F20001C4F201018842DC
:100F200003D1FFE7022000900BE00598406841F2F2
:100F30000041C4F201010022884208BF032200924E
:100F4000FFE700980190FFE701980290FFE7029801
:100F500000F00F009DF80E1088409DF80F10082239
:100F6000C4F2010252F82130184342F821000598DA
:100F70000088012101FA00F040F20842C4F20102A7
:100F8000136823EA000010600598008801FA00F059
:100F900040F20C41C4F201010A6822EA0000086034
:100FA0000598007B00280DD1FFE7059800880121F6
:100FB00001FA00F040F20841C4F201010A6810434E
:100FC000086030E00598007B01280DD1FFE7059807
:100FD0000088012101FA00F040F20C41C4F2010145
:100FE0000A68104308601DE00598007B022818D1AC
:100FF000FFE705980088012101FA00F040F208425D
:10100000C4F201021368184310600598008801FAC1
:1010100000F040F20C41C4F201010A68104308607C
:10102000FFE7FFE7FFE705980169008840F26002EB
:10103000C2F2000242F820100598407B012811D12D
:10104000FFE705980088012101FA00F040F2004115
:10105000C4F201010A681043086005980088FFF790
:1010600013FB11E005980088012101FA00F040F21D
:101070000041C4F201010A6822EA000008600598F4
:101080000088FFF7CFF9FFE706B080BD83B002907C
:1010900000200190FFE701980299884211D2FFE7F2
:1010A00000200090FFE70098FE2805D8FFE7FFE743
:1010B000009801300090F6E7FFE7019801300190B9
:1010C000E9E703B07047000080B58CB000200B90BA
:1010D00041F21801C4F202010A6842F004020A60F7
:1010E0000A6842F008020A600A6842F001020A60D7
:1010F0000290FFF78BFCFFF729FD1720ADF80C00DD
:1011000040F60041C4F2010104914FF40071ADF8C2
:1011100014108DF8160003980499059A0892079107
:10112000069002988DF8240040F26561C0F6000137
:101130000A9101218DF8251006A80191FFF724FDE1
:1011400040F29C00C2F2000001990160FFE740F20A
:101150009C00C2F200000068002809D0FFE7FFF7FA
:10116000F5FC40F29C00C2F2000000210160FFE7A4
:101170004FF47A7000F002F8E9E7000083B00290C3
:1011800000200190FFE701980299884211D2FFE701
:1011900000200090FFE70098FE2805D8FFE7FFE752
:1011A000009801300090F6E7FFE7019801300190C8
:1011B000E9E703B070474952512045585449392056
:1011C000547269676765726564205F7C2D0000005A
:1011D000E011000800000020A80600002801000817
:040000050800017975
:00000001FF
