:100000000C942A000C9436000C946E000C94A600FC
:100010000C9434000C9434000C9434000C94340090
:100020000C9434000C9434000C9434000C94340080
:100030000C9434000C9434000C9434000C94340070
:100040000C9434000C9434000C9434000C94340060
:100050000C94340011241FBECFE5D8E0DEBFCDBF25
:100060000E94DE000C94FA000C9400001F920F9284
:100070000FB60F9211242F933F934F935F938F935B
:100080009F93EF93FF93EBE3F0E0808181608083A7
:1000900028EE33E040E951E0CA010197F1F7215021
:1000A0003040D1F7EBE3F0E080818E7F808328EE53
:1000B00033E040E951E0CA010197F1F721503040A7
:1000C000D1F7FF91EF919F918F915F914F913F9168
:1000D0002F910F900FBE0F901F9018951F920F92A7
:1000E0000FB60F9211242F933F934F935F938F93EB
:1000F0009F93EF93FF93EBE3F0E080818260808336
:1001000028EE33E040E951E0CA010197F1F72150B0
:100110003040D1F7EBE3F0E080818D7F808328EEE3
:1001200033E040E951E0CA010197F1F72150304036
:10013000D1F7FF91EF919F918F915F914F913F91F7
:100140002F910F900FBE0F901F9018951F920F9236
:100150000FB60F9211242F933F934F935F938F937A
:100160009F93EF93FF93EBE3F0E0808184608083C3
:1001700028EE33E040E951E0CA010197F1F7215040
:100180003040D1F7EBE3F0E080818B7F808328EE75
:1001900033E040E951E0CA010197F1F721503040C6
:1001A000D1F7FF91EF919F918F915F914F913F9187
:1001B0002F910F900FBE0F901F901895EAE3F0E07B
:1001C000808187608083E5E5F0E0808181608083C5
:1001D00080818C608083E4E5F0E080818083EBE5C2
:1001E000F0E08081806E8083EFE5F0E080818068C0
:0801F0008083FFCFF894FFCFDC
:00000001FF
