:020000040800F2
:10000000A80600206D0100087501000877010008AE
:10001000790100087B0100087D0100080000000054
:100020000000000000000000000000007F01000848
:10003000810100080000000083010008850100081C
:100040008701000887010008870100088701000870
:1000500087010008870100082902000849020008FA
:100060006902000889020008A90200088701000847
:100070008701000887010008870100088701000840
:100080008701000887010008870100088701000830
:10009000870100088701000887010008C9020008DD
:1000A0008701000887010008870100088701000810
:1000B0008701000887010008870100088701000800
:1000C00087010008870100088701000887010008F0
:1000D0008701000865090008790900088D090008F2
:1000E00087010008870100088701000800F002F876
:1000F00000F02CF80AA090E8000C82448344AAF196
:100100000107DA4501D100F021F8AFF2090EBAE893
:100110000F0013F0010F18BFFB1A43F0010318473B
:10012000080900001809000000230024002500260B
:10013000103A28BF78C1FBD8520728BF30C148BF4A
:100140000B6070471FB51FBD10B510BD00F031F832
:100150001146FFF7F7FF00F037FC00F04FF803B44B
:10016000FFF7F2FF03BC00F057F800000948804792
:1001700009480047FEE7FEE7FEE7FEE7FEE7FEE789
:10018000FEE7FEE7FEE7FEE704480549054A064BA1
:10019000704700000D090008ED000008A8000020CD
:1001A000A8060020A8020020A8020020704770477F
:1001B0007047754600F02CF8AE4605006946534678
:1001C00020F00700854618B020B5FFF7DDFFBDE839
:1001D00020404FF000064FF000074FF000084FF0AE
:1001E000000BAC46ACE8C009ACE8C009ACE8C009FB
:1001F000ACE8C00921F007018D46704710B50446F0
:10020000AFF300802046BDE81040FFF7A8BF000014
:10021000004870470000002001491820ABBEFEE7EF
:10022000260002007047000080B540F21440C4F27E
:100230000100016841F00101016040F26000C2F27A
:1002400000000068804780BD80B540F21440C4F2D1
:100250000100016841F00201016040F26000C2F259
:1002600000004068804780BD80B540F21440C4F271
:100270000100016841F00401016040F26000C2F237
:1002800000008068804780BD80B540F21440C4F211
:100290000100016841F00801016040F26000C2F213
:1002A0000000C068804780BD80B540F21440C4F2B1
:1002B0000100016841F01001016040F26000C2F2EB
:1002C00000000069804780BDB0B540F21444C4F21C
:1002D0000104206840F260058006C2F2000505D5E1
:1002E000206840F020002060686980472068400650
:1002F00005D5206840F040002060A869804720684C
:10030000000605D5206840F080002060E86980473D
:100310002068C00505D5206840F480702060286AF8
:1003200080472068800558BFB0BD206840F4007049
:100330002060686A8047B0BD0146B0F5007F4FF08D
:10034000000016DA8A1E1E2A34D8DFE802F01032C6
:100350004332323245323232323232324732323244
:1003600032323232323232323232323249000420C8
:100370007047B1F5805F0DDBB1F5804F23DAB1F541
:10038000805F04BF10207047B1F5005F04BF1420E8
:1003900070477047B1F5007F04BF04207047B1F586
:1003A000806F04BF08207047B1F5006F04BF0C20B8
:1003B00070477047402904BF18207047802904BF48
:1003C0001C20704770470DD0B1F5004F04BF1C20B2
:1003D00070477047082070470C2070471020704706
:1003E00014207047182070472DE9F0410D8804460D
:1003F000002728460E46FF2D88BF01274FEA8708B1
:10040000FFF79AFF0F2154F82720814022EA0101CB
:1004100044F82710B1780A1F042A05D2F27842EA7C
:10042000810101F00F0110E0022903D20C2202EA3F
:1004300081010AE0082901D1042106E00229E168CE
:1004400014BFA9432943E160082154F8082001FAA8
:1004500000F0104344F80800BDE8F08180B500F0DA
:1004600033F841F20401C4F20201096840F60E2299
:10047000C1F30221C0F60002515CC84080BD0000FB
:1004800080B5FFF7EBFF41F20401C4F202010968F5
:1004900040F61E22C1F30221C0F60002515CC840A2
:1004A00080BD000080B5FFF7D9FF41F20401C4F21E
:1004B0000201096840F61E22C1F3C221C0F6000203
:1004C000515CC84080BD000041F20400C4F202004B
:1004D0000068C0F3810003280EBF002001A151F87D
:1004E0002000704700127A000024F4000024F40079
:1004F00070B582B044F20041C4F20001884245D098
:1005000044F60001C4F2000188427AD043F60001AB
:10051000C4F20101884240F0B58040F6000440F288
:100520000020C4F20104C0F2061001AD0190204683
:100530002946FFF759FF4FF48060ADF8040008200A
:100540008DF8060020462946FFF74EFF40F29C0535
:10055000C2F200052868006940F48070B0F5407F61
:100560000AD14FF40060ADF8040001208DF80600B8
:1005700001A92046FFF738FF2868006940F4807021
:10058000B0F5407F7ED141F2000031E040F600043A
:100590000420C4F20104C0F2061001AD019020460F
:1005A0002946FFF721FF0820ADF804008DF806006A
:1005B00020462946FFF718FF40F29C05C2F20005CD
:1005C0002868006940F48070B0F5407F08D10120B0
:1005D000ADF804008DF8060001A92046FFF704FFDE
:1005E0002868006940F48070B0F5407F4AD102204D
:1005F000C0F20610019001A92046FFF7F5FE02B0F7
:1006000070BD40F60004C4F2010440F20040C0F2A4
:10061000061004F5806501AE019028463146FFF7CB
:10062000E3FE4FF40060ADF8040008208DF80600EA
:1006300028463146FFF7D8FE40F29C06C2F200067B
:100640003068006940F48070B0F5407F0AD14FF403
:100650000050ADF8040001208DF8060001A92846DD
:10066000FFF7C2FE3068006940F48070B0F5407F4B
:1006700008D144F20000C0F20610019001A9204602
:10068000FFF7B2FE02B070BDF0B581B043F60007CF
:10069000044640F29C00C4F2010744F600060D46F1
:1006A000C2F20000BC42C4F2000601600FD0B442A6
:1006B00018D044F20040C4F2000084421AD141F242
:1006C0001C00C4F20200016841F4003111E041F263
:1006D0001C00C4F2020050F8041C41F4804140F8B0
:1006E000041C07E041F21C00C4F20200016841F45E
:1006F00080210160E068BC4240F40050E06028784E
:10070000E16840EA0100E060A868E16840EA0100B1
:10071000E060287BE16840EA0100E060687B2169D5
:1007200040EA010020612869616940EA01006061D6
:1007300002D0FFF7A5FE01E0FFF7B4FE69681923B8
:100740000A01B0FBF2F258438900B0FBF1F06FF000
:10075000630102FB010048F21F510001C5F2EB11D9
:10076000A0FB0101C1F3431040EA0210A060287D04
:1007700038B3E168BC4240EA0100E0600FD0B44207
:1007800017D044F20040C4F20000844219D14EF266
:100790000410CEF20000016841F0400106E04EF284
:1007A0000410CEF20000016841F02001016001B0A8
:1007B000F0BD4EF20410CEF20000016841F080015D
:1007C000016001B0F0BD00001AB900BF02689206D6
:1007D000FCD540F29C02C2F2000212689368127BC0
:1007E000B3F5805F06D17AB143F60400C4F201008C
:1007F00000680DE05AB143F60400C4F2010000683D
:1008000000F07F00088070474068088070474068AB
:10081000C0B20880704700001AB900BF0268120613
:10082000FCD540F29C02C2F200021268098892686C
:10083000FF23B2F5805F08BF40F2FF13194041600B
:100840007047000080B500F001F880BD82B041F231
:1008500004000021C4F202000191009150F8041C30
:1008600041F4803140F8041C50F8041C01F40031BC
:100870000091019901310191009919B90199B1F5DE
:10088000A06FF1D150F8041C890354BF002101214D
:1008900000910099012936D142F20001C4F202010F
:1008A0000A6842F010020A600A6822F007020A6031
:1008B0000A6842F002020A60016801600168016092
:1008C000016841F480610160016821F47C110160DC
:1008D000016841F4E811016050F8041C41F0807196
:1008E00040F8041C50F8041C8901FBD5016821F074
:1008F00003010160016841F002010160016801F03B
:100900000C010829FAD102B07047000080B541F20D
:100910000000C4F202000168002241F00101016000
:100920004168CFF6FF021140416001684FF6FF7247
:10093000CFF6F66211400160016821F48021016068
:10094000416821F4FE0141604FF41F018160FFF70F
:1009500079FF4EF60850CEF200004FF000610160C2
:1009600080BD000080B540F29C00C2F2000000682B
:100970008069804780BD000080B540F29C00C2F2D3
:10098000000000688069804780BD000080B540F2AB
:100990009C00C2F2000000688069804780BD0000B2
:1009A000B0B540F2A00443F60005C2F20004C4F260
:1009B0000105284621460122FFF706FF2846214669
:1009C0000022FFF729FFB0BD88B020214FF4E130AD
:1009D0008DF8181040F6A11102900020C0F6000119
:1009E00043F60004059007914FF4807103900C20AA
:1009F000C4F20104ADF810108DF8040001A92046DE
:100A0000FFF742FE2046FFF773FD00BFFEE7000040
:100A100000000000000001020304060708090000AE
:100A20000000010203040000380A00080000002052
:080A3000A806000028010008DF
:040000050800016D81
:00000001FF
