:100000000C942E000C942B010C942B010C942B01BE
:100010000C942B010C942B010C942B010C942B01B0
:100020000C942B010C942B010C942B010C942B01A0
:100030000C942B010C942B010C942B010C942B0190
:100040000C942B010C942B010C942B010C942B0180
:100050000C942B01006000790002640011241FBE83
:10006000CFE5D8E0DEBFCDBFE4E5F0E040E017C06B
:10007000B591A59135912591059107FD0CC09591FC
:100080008591EF01F92FE82F05900D92A217B30784
:10009000D9F7FE0104C01D92A217B307E1F7EB35B3
:1000A000F40731F70E940D010C941801F894FFCF6A
:1000B00080B38F7089F4089580B390E0022E02C05F
:1000C000959587950A94E2F780FF03C0A9014150F6
:1000D00051092F5F3F4F02C020E030E0243031054E
:1000E0005CF311BA12BA21B381E090E0042E02C091
:1000F000880F991F0A94E2F7922F982B91BB92B325
:10010000892B82BB24E030E00FC080B390E0022E48
:1001100002C0959587950A94E2F780FF03C0B90164
:100120006F5F7F4F2F5F3F4F2830310574F380EFB3
:1001300081BB82BB80B38F70E9F7CA01880F991F1A
:10014000880F991F480F591F405A5F4FFA01E60F59
:06015000F71F80810895F5
:1001560087E893E10197F1F700C000000E940201D1
:1001660087B3886087BB87B3846087BB87B38260A9
:1001760087BB88B3877F88BB88B38B7F88BB88B3F0
:100186008D7F88BB8AB38FEF8ABB0E94270188E3E5
:100196000E94D70086E00E94D70080E80E94D70020
:0801A6008DE00E94D7000895CE
:1001AE00CF93C82F0E940201CBBB88B38B7F88BB35
:0E01BE0088B38D7F88BB0E94F500CF91089515
:1001CC00CF93C82F0E940201CBBB88B38B7F88BB17
:0E01DC0088B3826088BB0E94F500CF91089521
:1001EA0088B3877F88BB8BE49DE10197F1F700C054
:0A01FA00000088B3886088BB0895F8
:100204008AB31ABA88B3846088BB88B38D7F88BBED
:060214000E94F5000895B0
:10021A000E94AB000E9423010E9458008823E1F348
:06022A000E94E600F9CF7E
:10023000EC010E9430010E942F01CE010E94310189
:06024000CE010E942D0119
:0802460080EF81BB82BB08952B
:08024E0081E00E94D700089531
:040256000C94000004
:04025A000E945600A8
:02025E00089501
:020260000895FF
:020262000895FD
:100264003738392F003435362A003132332D002106
:09027400303D2B000000000000E9
:00000001FF
